:030000000209A151
:0C09A100787FE4F6D8FD7581330209E888
:100A2D0057726F6E672050617373776F72640043F6
:100A3D006F72726563742050617373776F726400A7
:100A4D00456E7465722050617373776F72643A00EE
:100A5D00313541382A443623004163657373204490
:100A6D00656E696564004163657373204772616EDD
:040A7D007465640038
:100B260010083132334134353642373839432A30AA
:020B3600234456
:100A8100E4F5A0C282C280C2817F38FE120B391206
:100A91000AC47F067E00120B39120AC47F0C7E0045
:100AA100120B39120AC47F017E00120B39120AC4DB
:070AB1007F807E00020B397B
:100AB8007F01120B397F807E00120B397F047E0084
:100AC800E4FDFCC3ED9FEC9E5015E4FBFA0BBB0064
:0F0AD800010ABA01F8BB7EF50DBD00010C80E4E8
:010AE70022EC
:100B3900C280C281D2828FA07F0A7E00120AC8C2F7
:020B4900822206
:100B4B00D280C281D2828FA07F0A7E00120AC8C2D5
:020B5B008222F4
:100AE8008B318A328933AB31AA32A933120B0D60AC
:100AF800130533E5337002053214F9120B0DFF129A
:050B08000B4B80E2220E
:1008000075B00F120A817F807E00120B397BFF7A50
:100810000A794D120AE8E4F52EF52F75B00FE5B010
:10082000540F752600F527640F452670F18008E502
:1008300027640F4526700BE5B0540F752600F52789
:1008400080ED7F147E00120AC8E5B0540F8E26F5A5
:1008500027640F452660C7E5B044F08E28F529755A
:100860002C00752D01E4F52AF52BE52DC454F0FF7D
:10087000C3E5299FF5B043B00FE5B0540F752600CE
:10088000F527E52D25E0F52DE52C33F52CE527643E
:100890000F45266008852A24852B25800E052BE52B
:1008A0002B7002052A6404452A70BF752C00752D33
:1008B00001E4F52AF52BC3740F952DFFE4952CFE6A
:1008C000EFB52712EEB5260EC37403952BF523E47E
:1008D000952AF5228019E52D25E0F52DE52C33F537
:1008E0002C052BE52B7002052A6404452A70C7E508
:1008F0002525E025E024082523F8E6F530741A259F
:100900002FF8A6307FC0120ABF7B007A00791A1236
:100910000AE8052FE52F7002052EC39408E52E94F2
:1009200000500302081BE4F518F519F52EF52F7495
:100930001A252FF8E6FF745D252FF582740A352EEF
:10094000F583E4936F60247E00120AB87BFF7A0A75
:10095000792D120AE87FC0120ABF7BFF7A0A7966F6
:10096000120AE87518007519018011052FE52F701E
:1009700002052EC39408E52E940040B3E5194518EE
:10098000701DFE120AB87BFF7A0A793C120AE87FD2
:10099000C0120ABF7BFF7A0A7973120AE880FE80D0
:0109A000FE58
:1009AD00020800E493A3F8E493A34003F68001F258
:1009BD0008DFF48029E493A3F85407240CC8C3334B
:1009CD00C4540F4420C8834004F456800146F6DF1A
:1009DD00E4800B0102040810204080900B26E47E79
:1009ED00019360BCA3FF543F30E509541FFEE4930F
:1009FD00A360010ECF54C025E060A840B8E493A3D6
:100A0D00FAE493A3F8E493A3C8C582C8CAC583CA00
:100A1D00F0A3C8C582C8CAC583CADFE9DEE780BEB8
:010B380000BC
:100B0D00BB010689828A83E0225002E722BBFE02E6
:090B1D00E32289828A83E4932219
:00000001FF
