:03000000020C11DE
:0C0C1100787FE4F6D8FD75812B02080006
:100A800020202053544152542050524F4752414D40
:100A90002020202020002020204649525354204965
:100AA0004E5055542020202020002020204E455814
:100AB0005420494E50555420202020200020202032
:100AC000534F5254494E472E2E2E202020202000D6
:100AD000202020534F5254494E47202020202000F0
:100AE000202020434F4D504C455445442020202089
:100AF000200020204E554D42455220544F20424563
:100B000020202020200020202053454152434845EA
:100B10004420202020200020202054484520494EF9
:100B20004445582049532020202020002020204EDA
:100B3000554D4245522020202020002009204E4FB4
:0D0B40005420464F554E4420202020200018
:100B4D00E4F5A0C282C280C2817F38FE120BED1285
:100B5D000B8B7F067E00120BED120B8B7F0C7E0034
:100B6D00120BED120B8B7F017E00120BED120B8B16
:070B7D007F807E00020BEDFA
:0B0B84007F017E00120BED7F047E005D
:100B8F00E4FDFCC3ED9FEC9E5015E4FBFA0BBB009C
:0F0B9F00010ABA01F8BB7EF50DBD00010C80E420
:010BAE002224
:100BED00C280C281D2828FA07F0A7E00120B8FC27B
:020BFD00822252
:100BFF00D280C281D2828FA07F0A7E00120B8FC259
:020C0F0082223F
:100BAF008B298A2A892BAB29AA2AA92B120BD4604D
:100BBF0013052BE52B7002052A14F9120BD4FF1223
:050BCF000BFF80E22293
:10080000E4F590120B4D7F80120B867BFF7A0A79FC
:1008100080120BAF7F887E13120B8FE4F527F5282B
:10082000F517F5187F01FE120BED7F80120B867B0A
:10083000FF7A0A7996120BAF75160FC3E528940557
:10084000E527940040030208CB75900FE52894003B
:10085000E5279400401CE52825E02415F808E6F576
:1008600090120B847F80120B887BFF7A0A79AA1280
:100870000BAF43900F7F887E13120B8F120B847F78
:1008800080120B88E5165290AF90AD28ED25E0243C
:100890000CF8A60608A607ED25E0240CF8E6FE08ED
:1008A000E6C4F8540FC868FFEEC454F048FEED25C6
:1008B000E02417F8A60608A6077FE87E03120B8F30
:1008C0000528E5287002052702083BE4F527F528EE
:1008D000F5087509018520907BFF7A0A79BD120B16
:1008E000AFE5094508606CE4F508F509F527F5283A
:1008F000C3E5289404E527940050E6AF28EF25E0EF
:10090000240EF8E6FC08E6FDEF25E0240CF8E6FEF0
:1009100008E6FFD39DEE9C40308E0A8F0BE528251C
:10092000E0240EF8E6FE08E6FFAD28ED25E0240CF5
:10093000F8A60608A607ED25E0240EF8A60A08A6E4
:100940000B0509E509700205080528E52870A105D1
:1009500027809D7F887E13120B8FE4F5907F01FE28
:10096000120B887BFF7A0A79D0120BAF7FC0120B73
:10097000867BFF7A0A79E0120BAFE4F527F5287F32
:10098000E87E03120B8FC3E5289405E527940050F9
:100990002DE52825E0240CF808E6C4F8540FC868B3
:1009A000FF8F907F887E13120B8FE4F5907FE87E97
:1009B00003120B8F0528E52870CC052780C8E4F5C5
:1009C000907FE87E03120B8F7590FF120B847BFFE4
:1009D0007A0A79F2120BAF7FC0120B867BFF7A0B7B
:1009E0007906120BAF7F887E13120B8FE590540FA0
:1009F000752100F522120B84E4F5907FE87E031246
:100A00000B8FE4F527F528E52825E0240CF8E6FE11
:100A100008E6B52218E521B50613752300752401F3
:100A2000E5282401F526E43527F5258013E4F52390
:100A3000F5240528E528700205276405452770C7B9
:100A4000E52464014523701C7F01FE120B887BFFA7
:100A50007A0B7917120BAFE526C4F8540FC868FF5C
:100A60008F9080FE120B847BFF7A0B792C120BAFD8
:100A70007FC0120B867BFF7A0B793B120BAF80FE97
:100BD400BB010689828A83E0225002E722BBFE021F
:090BE400E32289828A83E4932252
:00000001FF
