:03000000020100FA
:0B0100001201461201BB1201FC80FE40
:10013000C00078C85113D8FCD00022C000786451A8
:1001400013D8FCD0002275901F3130E590C3941075
:10015000C4FE75902F3130E590C394208EF025F0C9
:10016000F56075903F3130E590C39430C4FE7590D2
:100170004F3130E590C394408EF025F0F5617590D5
:100180005F3130E590C39450C4FE75906F3130E517
:1001900090C394608EF025F0F56275907F3130E564
:1001A00090C39470C4FE75908F3130E590C39480F5
:1001B0008EF025F0F56353900F313B787379637AB5
:1001C0000487F0740A95F0601E5015C3741495F0FE
:1001D000601C5013C3741E95F0601A501140162213
:1001E00076101918DADB2276201918DAD422764034
:1001F0001918DACD2276801918DAC6228570903166
:100200003B857190313B857290313B857390313BDA
:1002100031FC22C00078C8511ED8FCD00022C0009A
:0702200078F4D8FED00022A3
:00000001FF
