:03000000020B668A
:0C0B6600787FE4F6D8FD75811E020800BF
:100AB500E4F5A0C282C280C2817F38FE120B3512D6
:100AC5000B117F067E00120B35120B117F0C7E0079
:100AD500120B35120B117F017E00120B35120B1113
:070AE5007F807E00020B354B
:040B11007F047E00DF
:100B1500E4FDFCC3ED9FEC9E5015E4FBFA0BBB0016
:0F0B2500010ABA01F8BB7EF50DBD00010C80E49A
:010B3400229E
:100B3500C280C281D2828FA07F0A7E00120B15C2AD
:020B450082220A
:100B4700D280C281D2828FA07F0A7E00120B15C28B
:020B57008222F8
:100AEC008B1C8A1D891EAB1CAA1DA91E12093B60FA
:100AFC0013051EE51E7002051D14F912093BFF12A9
:050B0C000B4780E2220E
:03000B00020B598C
:0D0B5900C0E0050DE50D7002050CD0E03286
:10080000120AB5758905D290D2B4E4F50CF50DD273
:10081000AFD2A9758CF0758A10A290928C308CF9A9
:10082000AE0CAF0DEE3395E0FDFCE4FBFA7901F878
:10083000120954A804A905AA06AB07AF8CEFFEE481
:10084000FCFD2BFBEA3EFAED39F9EC38F8AF8AE40F
:10085000FEEB2FF50BEE3AF50AED39F509EC38F51C
:1008600008E47B3CFAF9F8AF0BAE0AAD09AC08120C
:100870000A718F168E158D148C13E47B3CFAF9F8EF
:10088000120A718F1A8E198D188C17E47F3CFEFDA9
:10089000FCAB1AAA19A918A817120954A804A9058B
:1008A000AA06C3E5169FF516E5159AF515E5149900
:1008B000F514E51398F5137F807E00120B35E47B69
:1008C0000AFAF9F8AF1AAE19AD18AC17120A71EF9F
:1008D0002430F50EE47B0AFAF9F8AF1AAE19AD1818
:1008E000AC17120A71EB2430F50F75103AE47B0A4D
:1008F000FAF9F8AF16AE15AD14AC13120A71EF2465
:1009000030F511E47B0AFAF9F8AF16AE15AD14AC68
:1009100013120A71EB2430F5127B007A00790E1263
:100920000AEC7FC07E00120B35E50D2430F51B7BF1
:0B093000007A00791B120AEC02081983
:10093B00BB010689828A83E0225002E722BBFE02BA
:09094B00E32289828A83E49322ED
:10095400E88FF0A4CC8BF0A42CFCE98EF0A42CFC42
:100964008AF0EDA42CFCEA8EF0A4CDA8F08BF0A4C0
:100974002DCC3825F0FDE98FF0A42CCD35F0FCEB1F
:100984008EF0A4FEA9F0EB8FF0A4CFC5F02ECD39E4
:0F099400FEE43CFCEAA42DCE35F0FDE43CFC2251
:100A7100C2D5E830E70FB2D5E4C39BFBE49AFAE4B0
:100A810099F9E498F8EC30E717B2D5120AA71209E0
:100A9100DFE4C39BFBE49AFAE499F9E498F8800354
:100AA1001209DF30D50DE4C39FFFE49EFEE49DFDF6
:040AB100E49CFC22A3
:1009A30075F008758200EF2FFFEE33FECD33CDCC0B
:1009B30033CCC58233C5829BED9AEC99E58298408E
:1009C3000CF582EE9BFEED9AFDEC99FC0FD5F0D66B
:1009D300E4CEFBE4CDFAE4CCF9A88222B800C1B995
:1009E3000059BA002DEC8BF084CFCECDFCE5F0CBD3
:1009F300F97818EF2FFFEE33FEED33FDEC33FCEB0C
:100A030033FB10D703994004EB99FB0FD8E5E4F9C6
:100A1300FA227818EF2FFFEE33FEED33FDEC33FCB3
:100A2300C933C910D7059BE99A4007EC9BFCE99AA7
:100A3300F90FD8E0E4C9FAE4CCFB2275F010EF2FEC
:100A4300FFEE33FEED33FDCC33CCC833C810D707EC
:100A53009BEC9AE899400AED9BFDEC9AFCE899F827
:0E0A63000FD5F0DAE4CDFBE4CCFAE4C8F922BA
:00000001FF
